:020000040800F2
:1000000000000220E50E0008B90E0008BB0E000833
:10001000BD0E0008BF0E0008C10E00080000000061
:10002000000000000000000000000000C30E0008F7
:10003000C50E000800000000C70E0008C90E000829
:10004000350F0008350F0008350F0008350F000880
:10005000350F0008350F0008350F0008350F000870
:10006000350F0008350F0008350F0008350F000860
:10007000350F0008350F0008350F0008350F000850
:10008000350F0008350F0008350F0008350F000840
:10009000350F0008350F0008350F0008350F000830
:1000A000350F0008350F0008350F0008350F000820
:1000B000350F0008350F0008350F0008350F000810
:1000C000350F0008350F0008350F0008350F000800
:1000D000350F0008350F0008350F0008350F0008F0
:1000E000350F0008350F0008350F0008350F0008E0
:1000F000350F0008350F0008350F0008350F0008D0
:10010000350F0008350F0008350F0008350F0008BF
:10011000350F0008350F0008350F0008350F0008AF
:10012000350F0008350F0008350F0008350F00089F
:10013000350F0008350F0008350F0008350F00088F
:10014000350F0008350F0008350F0008350F00087F
:10015000350F0008350F0008350F0008350F00086F
:10016000350F0008350F0008350F0008350F00085F
:10017000350F0008350F0008350F0008350F00084F
:10018000350F0008350F0008350F0008350F00083F
:10019000350F000800000000350F0008350F00087B
:1001A000350F0008350F0008350F0008350F00081F
:1001B000350F0008350F0008350F0008350F00080F
:1001C000350F0008350F0008350F0008350F0008FF
:0801D000350F0008350F00088F
:1001D80010B5054C237833B9044B13B10448AFF379
:1001E80000800123237010BD3804002000000000A7
:1001F800380F000808B5034B1BB103490348AFF398
:10020800008008BD000000003C040020380F0008F2
:1002180070B50D4E0D4D761BB61006D0002455F85E
:10022800043B01349847A642F9D1094E094D761B83
:1002380000F07EFEB61006D0002455F8043B0134C9
:100248009847A642F9D170BD640F0008640F0008F2
:100258006C0F0008640F0008830730B548D0541E9F
:10026800002A3FD0CAB2034601E0013C3AD303F862
:10027800012B9D07F9D1032C2DD9CDB245EA0525CF
:100288000F2C45EA054536D9A4F1100222F00F0CCF
:1002980003F1200EE6444FEA121C03F1100242E972
:1002A800045542E9025510327245F8D10CF10102A9
:1002B80014F00C0F03EB021204F00F0C13D0ACF186
:1002C800040323F003030433134442F8045B93420A
:1002D800FBD10CF003042CB1CAB21C4403F8012B67
:1002E8009C42FBD130BD64461346002CF4D1F9E79B
:1002F80003461446BFE71A46A446E0E7024B13B18B
:10030800024800F005B87047000000002503000807
:10031800002301461A46184600F01AB838B5084BAB
:10032800084D5B1B9C1007D0043B1D44013C55F84D
:1003380004399847002CF9D1BDE8384000F0FEBDDB
:10034800700F00086C0F0008704700BF704700BFAF
:100358002DE9F047DFF880A00646DAF80000984655
:100368000F469146FFF7F0FF1A4B1B68D3F8484138
:1003780024B365681F2D26DC5EB96B1C0235DAF8DC
:100388000000636044F82570FFF7E0FF0020BDE837
:10039800F08704EB85010123C1F88890D4F88821FF
:1003A800AB401A43022EC4F88821C1F80881E4D171
:1003B800D4F88C211343C4F88C31DEE703F5A67416
:1003C800C3F84841D5E7DAF80000FFF7BFFF4FF060
:1003D800FF30DCE7500F000828040020124BDA68D1
:1003E80002F00302D868C0F30310431C032A11D09B
:1003F8000E48B0FBF3F00C4BDB68C3F3062303FB9A
:1004080000F0094BDB68C3F3416301335B00B0FBC9
:10041800F3F070470648B0FBF3F0034BDB68C3F317
:10042800062303FB00F0ECE7001002400024F40070
:1004380000127A00002800F0548270B582B0044699
:10044800036813F0010F37D0A44A936803F00C0334
:10045800D26802F003020C2B23D0082B23D0636848
:10046800B3F5803F4ED0B3F5A02F51D09B4B1A68FF
:1004780022F480321A601A6822F480221A606368B3
:10048800002B52D000F0BAFC0546944B1B6813F4BD
:10049800003F11D100F0B2FC401B6428F5D90320BD
:1004A80028E2032AD9D18D4B1B6813F4003F03D0EF
:1004B8006368002B00F01782236813F0020F5DD0E9
:1004C800864A936803F00C03D26802F003020C2BEF
:1004D8003AD0042B3AD0E368002B75D07F4A1368D2
:1004E80043F48073136000F089FC05467B4B1B685E
:1004F80013F4806F5FD100F081FC401B0228F5D90E
:100508000320F7E1754A136843F480331360B6E7B4
:1005180003F18043A3F53C331A6842F480221A6041
:100528001A6842F480321A60A9E700F067FC0546B1
:100538006A4B1B6813F4003FBED000F05FFC401B01
:100548006428F5D90320D5E1022AC2D1634B1B6880
:1005580013F4806F03D0E368002B00F0C6815F4A74
:10056800536823F0FE43216943EA016353605C4BFF
:10057800186800F0FFFB002840F0B981236813F0E9
:10058800080F4CD063699BB3544AD2F8943043F0B7
:100598000103C2F8943000F031FC05464F4BD3F804
:1005A800943013F0020F3AD100F028FC401B0228C7
:1005B800F4D903209EE1494A536823F0FE43216998
:1005C80043EA01635360D9E7444A136823F480730C
:1005D800136000F013FC0546404B1B6813F4806F52
:1005E800CCD000F00BFC401B0228F5D9032081E198
:1005F8003A4AD2F8943023F00103C2F8943000F05C
:10060800FDFB0546354BD3F8943013F0020F06D0A6
:1006180000F0F4FB401B0228F4D903206AE12368A8
:1006280013F0040F00F081802C4B9B6D13F0805F5A
:1006380036D12A4B9A6D42F080529A659B6D03F031
:1006480080530193019B0125264B1B6813F4807F7F
:1006580028D0A368012B39D0052B45D01F4BD3F8E0
:10066800902022F00102C3F89020D3F8902022F0C5
:100678000402C3F89020A368002B43D000F0BEFB0F
:100688000646164BD3F8903013F0020F4CD100F009
:10069800B5FB801B41F288339842F2D9032029E147
:1006A8000025D1E70F4A136843F48073136000F004
:1006B800A5FB06460B4B1B6813F4807FC9D100F0DD
:1006C8009DFB801B0228F5D9032013E1034AD2F8C9
:1006D800903043F00103C2F89030CCE7001002409C
:1006E80030040020007000408A4BD3F8902042F07C
:1006F8000402C3F89020D3F8902042F00102C3F816
:100708009020B8E700F07AFB0646824BD3F8903089
:1007180013F0020F08D000F071FB801B41F2883300
:100728009842F2D90320E5E0E5B9236813F0200FD9
:1007380035D0A369E3B1774AD2F8983043F0010382
:10074800C2F8983000F05AFB0546724BD3F898303F
:1007580013F0020F23D100F051FB401B0228F4D9FB
:100768000320C7E06B4A936D23F080539365DCE761
:10077800684AD2F8983023F00103C2F8983000F0A4
:100788003DFB0546634BD3F8983013F0020F06D0B3
:1007980000F034FB401B0228F4D90320AAE0E369E7
:1007A800002B00F0A6805B4A926802F00C020C2A2B
:1007B80069D0022B1DD0574B1A6822F080721A603C
:1007C800DA6822F00302DA60DA6822F0887222F42A
:1007D8008032DA6000F012FB04464E4B1B6813F0BF
:1007E800007F4ED000F00AFB001B0228F5D9032039
:1007F80080E0484A136823F08073136000F0FEFA23
:100808000546444B1B6813F0007F06D000F0F6FA4B
:10081800401B0228F5D903206CE03E4AD3683E49C4
:100828001940236A606A013843EA0013A06A43EA60
:100838000023206B4008013843EA4053606B4008AE
:10084800013843EA4063E06A43EAC0630B43D3607C
:10085800136843F080731360D36843F08073D360E8
:1008680000F0CCFA04462B4B1B6813F0007F06D12E
:1008780000F0C4FA001B0228F5D903203AE0002052
:1008880038E0002036E0012B36D0224BDB6803F03D
:100898000301226A914231D103F0F002616A013901
:1008A800B2EB011F2CD103F4FE42A16AB2EB012F77
:1008B80028D103F07842E16AB2EBC16F24D103F486
:1008C800C001226B5208013AB1EB425F1ED103F01E
:1008D800C063626B5208013AB3EB426F18D1002033
:1008E80008E001207047012004E0012002E0012017
:1008F80000E0002002B070BD0120FBE70120F9E70D
:100908000120F7E70120F5E70120F3E70120F1E7EF
:100918000120EFE7001002400C809F011E4B9B68EE
:1009280003F00C03042B33D01B4B9B6803F00C0320
:10093800082B2FD0184B9B6803F00C030C2B01D00D
:1009480000207047144BDA6802F00302D868C0F33D
:100958000310431C032A11D01048B0FBF3F00E4BD0
:10096800DB68C3F3062303FB00F00B4BDB68C3F320
:10097800416301335B00B0FBF3F070470848B0FBFC
:10098800F3F0054BDB68C3F3062303FB00F0ECE749
:100998000248704702487047001002400024F400E3
:1009A80000127A00002800F0E680F8B50C460546EB
:1009B800744B1B6803F00F038B420BD2714A136808
:1009C80023F00F030B431360136803F00F038B42EC
:1009D80040F0D3802E6816F001065FD06B68032BB9
:1009E8002FD0022B4DD0684B1B6813F4806F00F09A
:1009F800C680FFF793FF654B98424DD9624A9368CA
:100A080023F0F00343F08003936080265E4A9368E6
:100A180023F0030369680B43936000F0EFF907467E
:100A2800594B9B6803F00C036A68B3EB820F35D00F
:100A380000F0E4F9C01B41F288339842F0D9032052
:100A480078E0514B1B6813F0007F01D1012071E061
:100A5800FFF7C4FC4D4B98421AD94B4B9B6813F0D7
:100A6800F00F05D02E6816F00206CFD0AB688BB910
:100A7800454A936823F0F00343F08003936080268F
:100A8800C4E7414B1B6813F4003FB2D1012051E089
:100A98000026BBE70026B9E70026B7E72B6813F066
:100AA800020F48D013F0040F04D0374A936843F478
:100AB800E06393602B6813F0080F06D0324A9368FE
:100AC80023F47C5343F4E06393602F4A936823F044
:100AD800F003A9680B4393602A4B1B6803F00F03CC
:100AE800A34230D82B6813F0040F06D0264A936827
:100AF80023F4E063E9680B4393602B6813F0080F55
:100B080007D0214A936823F46053296943EAC10353
:100B18009360FFF703FF1C4B9B68C3F303131C4A46
:100B2800D35C03F01F03D8401A4B18601A4B18689F
:100B380000F020F9F8BD802ECED1134A936823F037
:100B4800F0039360C8E70F4A136823F00F032343A9
:100B5800136000F053F906460A4B1B6803F00F03B5
:100B6800A342BFD000F04AF9801B41F28833984273
:100B7800F2D90320DEE7012070470120DAE70120DF
:100B8800D8E700BF002002400010024000B4C404AF
:100B9800540F00083404002030040020002836D107
:100BA8003E4B1B6803F4C063B3F5806F08D03B4A23
:100BB800D2F8803023F48073C2F880300020704768
:100BC800364AD2F8803023F48073C2F88030136834
:100BD80023F4C06343F400731360314B1B68322263
:100BE80002FB03F32F4AA2FB03239B0C013300E013
:100BF800013B2A4A526912F4806F01D0002BF7D1C9
:100C0800264B5B6913F4806F44D100207047B0F520
:100C1800007F08D0214A136823F4C06343F480633B
:100C28001360002070471D4B1B6803F4C063B3F5C5
:100C3800806F08D0194AD2F8803043F48073C2F824
:100C4800803000207047154AD2F8803043F4807312
:100C5800C2F88030136823F4C06343F40073136050
:100C68000F4B1B68322202FB03F30E4AA2FB03233D
:100C78009B0C013300E0013B084A526912F4806F73
:100C880001D0002BF7D1054B5B6913F4806F03D1BA
:100C98000020704703207047032070470070004011
:100CA8003404002083DE1B43024A936843F48043E4
:100CB8009360704700700040074AD36823F4E063EC
:100CC8001B041B0C000200F4E060034343F0BF6305
:100CD80043F40033D360704700ED00E000B5194BD2
:100CE800DB68C3F30223C3F1070CBCF1040F28BF70
:100CF8004FF0040C03F1040EBEF1060F18D9033BA4
:100D08004FF0FF3E0EFA0CFC21EA0C0199400EFA56
:100D180003F322EA0303194300280BDB0901C9B2D4
:100D280000F1604000F5614080F800135DF804FBB5
:100D38000023E5E700F00F000901C9B2024B19547E
:100D4800F4E700BF00ED00E014ED00E00138B0F179
:100D5800807F0BD24FF0E0235861054AF02182F8DA
:100D680023100020986107221A61704701207047FC
:100D780000ED00E0104B1B680BB90120704710B55F
:100D880004464FF47A70B0FBF3F30C4A1068B0FBDA
:100D9800F3F0FFF7DBFF68B90F2C01D901200AE057
:100DA800002221464FF0FF30FFF798FF044B1C60EC
:100DB800002000E0012010BD2C0400203404002095
:100DC8003004002010B50320FFF776FF0F20FFF74F
:100DD800D1FF10B10124204610BD044600F04CF8A4
:100DE800F9E70000034A1368034909680B441360D4
:100DF800704700BF580400202C040020014B1868DD
:100E0800704700BF5804002072B6FEE710B594B0D2
:100E18003822002106A8FFF71FFA00240194029443
:100E28000394049405944FF40070FFF7B7FE02236F
:100E380006934FF48073099340230A930D9406A8F0
:100E4800FFF7F8FA68B90F230193012302930021F1
:100E580003910491059101A8FFF7A4FD18B914B0F6
:100E680010BDFFF7D1FFFFF7CFFF08B5FFF7AAFFC7
:100E7800FFF7CCFFFEE7000000B583B00B4B1A6EFE
:100E880042F001021A661A6E02F001020092009AFC
:100E98009A6D42F080529A659B6D03F080530193DE
:100EA800019BFFF701FF03B05DF804FB001002404F
:100EB800FEE7FEE7FEE7FEE7FEE77047704770478C
:100EC80008B5FFF78FFF08BD034AD2F8883043F40E
:100ED8007003C2F88830704700ED00E00D48854681
:100EE8000D480E490E4A002302E0D458C45004337A
:100EF800C4188C42F9D30B4A0B4C002301E0136051
:100F08000432A242FBD3FFF7DFFFFFF781F9FFF7B7
:100F1800ACFFFEE70000022000000020380400209B
:100F2800700F0008380400205C040020FEE7000071
:100F3800F8B500BFF8BC08BC9E467047F8B500BFBE
:080F4800F8BC08BC9E4670478E
:100F50000000002000000000000000000102030467
:040F6000060708096F
:080F640005030008FD0100086F
:040F6C00D90100089F
:100F700000000000EC02002054030020BC0300200D
:100F80000000000000000000000000000000000061
:100F90000000000000000000000000000000000051
:100FA0000000000000000000000000000000000041
:100FB0000000000000000000000000000000000031
:100FC0000000000000000000000000000000000021
:100FD0000000000000000000000000000000000011
:100FE0000000000000000000000000000000000001
:100FF00000000000000000000000000000000000F1
:1010000000000000000000000000000000000000E0
:1010100000000000000000000100000000000000CF
:101020000E33CDAB34126DE6ECDE05000B00000094
:1010300000000000000000000000000000000000B0
:1010400000000000000000000000000000000000A0
:101050000000000000000000000000000000000090
:101060000000000000000000000000000000000080
:1013900000000000000000005404002001000000D4
:0813A000100000000024F4001D
:0400000508000EE5FC
:00000001FF
